{
  "contractName": "LBRC",
  "abi": [
    {
      "inputs": [],
      "stateMutability": "nonpayable",
      "type": "constructor"
    },
    {
      "inputs": [
        {
          "internalType": "address",
          "name": "",
          "type": "address"
        }
      ],
      "name": "empContractStatus",
      "outputs": [
        {
          "internalType": "int8",
          "name": "cenLat",
          "type": "int8"
        },
        {
          "internalType": "int8",
          "name": "cenLon",
          "type": "int8"
        },
        {
          "internalType": "int8",
          "name": "radius",
          "type": "int8"
        },
        {
          "internalType": "uint8",
          "name": "payAmount",
          "type": "uint8"
        },
        {
          "internalType": "uint8",
          "name": "compCount",
          "type": "uint8"
        },
        {
          "internalType": "uint8",
          "name": "reqAmount",
          "type": "uint8"
        }
      ],
      "stateMutability": "view",
      "type": "function"
    },
    {
      "inputs": [
        {
          "internalType": "uint256",
          "name": "",
          "type": "uint256"
        }
      ],
      "name": "employees",
      "outputs": [
        {
          "internalType": "address",
          "name": "",
          "type": "address"
        }
      ],
      "stateMutability": "view",
      "type": "function"
    },
    {
      "inputs": [],
      "name": "employer",
      "outputs": [
        {
          "internalType": "address",
          "name": "",
          "type": "address"
        }
      ],
      "stateMutability": "view",
      "type": "function"
    },
    {
      "inputs": [
        {
          "internalType": "address",
          "name": "_empAddr",
          "type": "address"
        },
        {
          "internalType": "int8",
          "name": "_cenLat",
          "type": "int8"
        },
        {
          "internalType": "int8",
          "name": "_cenLon",
          "type": "int8"
        },
        {
          "internalType": "int8",
          "name": "_radius",
          "type": "int8"
        },
        {
          "internalType": "uint8",
          "name": "_payAmount",
          "type": "uint8"
        },
        {
          "internalType": "uint8",
          "name": "_reqAmount",
          "type": "uint8"
        }
      ],
      "name": "setAccount",
      "outputs": [],
      "stateMutability": "nonpayable",
      "type": "function"
    },
    {
      "inputs": [
        {
          "internalType": "int8",
          "name": "_lat",
          "type": "int8"
        },
        {
          "internalType": "int8",
          "name": "_lon",
          "type": "int8"
        }
      ],
      "name": "updateStatus",
      "outputs": [],
      "stateMutability": "nonpayable",
      "type": "function"
    },
    {
      "inputs": [
        {
          "internalType": "address payable",
          "name": "_to",
          "type": "address"
        }
      ],
      "name": "payMe",
      "outputs": [],
      "stateMutability": "payable",
      "type": "function"
    },
    {
      "inputs": [],
      "name": "getAdmin",
      "outputs": [
        {
          "internalType": "address",
          "name": "",
          "type": "address"
        }
      ],
      "stateMutability": "view",
      "type": "function"
    }
  ],
  "bytecode": "0x608060405234801561000f575f80fd5b50335f806101000a81548173ffffffffffffffffffffffffffffffffffffffff021916908373ffffffffffffffffffffffffffffffffffffffff16021790555061148c8061005c5f395ff3fe60806040526004361061006f575f3560e01c806380def88d1161004d57806380def88d146101015780639530228b14610142578063ad218d431461016a578063ae200e79146101865761006f565b80632134432c146100735780634739326b1461009b5780636e9960c3146100d7575b5f80fd5b34801561007e575f80fd5b5061009960048036038101906100949190610ba6565b6101b0565b005b3480156100a6575f80fd5b506100c160048036038101906100bc9190610c62565b6104ba565b6040516100ce9190610c9c565b60405180910390f35b3480156100e2575f80fd5b506100eb6104f5565b6040516100f89190610c9c565b60405180910390f35b34801561010c575f80fd5b5061012760048036038101906101229190610cb5565b61051c565b60405161013996959493929190610cfe565b60405180910390f35b34801561014d575f80fd5b5061016860048036038101906101639190610d5d565b610599565b005b610184600480360381019061017f9190610dd6565b6106b1565b005b348015610191575f80fd5b5061019a610970565b6040516101a79190610c9c565b60405180910390f35b5f8054906101000a900473ffffffffffffffffffffffffffffffffffffffff1673ffffffffffffffffffffffffffffffffffffffff163373ffffffffffffffffffffffffffffffffffffffff161461023d576040517f08c379a000000000000000000000000000000000000000000000000000000000815260040161023490610e81565b60405180910390fd5b600186908060018154018082558091505060019003905f5260205f20015f9091909190916101000a81548173ffffffffffffffffffffffffffffffffffffffff021916908373ffffffffffffffffffffffffffffffffffffffff1602179055508460025f8873ffffffffffffffffffffffffffffffffffffffff1673ffffffffffffffffffffffffffffffffffffffff1681526020019081526020015f205f015f6101000a81548160ff02191690835f0b60ff1602179055508360025f8873ffffffffffffffffffffffffffffffffffffffff1673ffffffffffffffffffffffffffffffffffffffff1681526020019081526020015f205f0160016101000a81548160ff02191690835f0b60ff1602179055508260025f8873ffffffffffffffffffffffffffffffffffffffff1673ffffffffffffffffffffffffffffffffffffffff1681526020019081526020015f205f0160026101000a81548160ff02191690835f0b60ff1602179055508160025f8873ffffffffffffffffffffffffffffffffffffffff1673ffffffffffffffffffffffffffffffffffffffff1681526020019081526020015f205f0160036101000a81548160ff021916908360ff1602179055505f60025f8873ffffffffffffffffffffffffffffffffffffffff1673ffffffffffffffffffffffffffffffffffffffff1681526020019081526020015f205f0160046101000a81548160ff021916908360ff1602179055508060025f8873ffffffffffffffffffffffffffffffffffffffff1673ffffffffffffffffffffffffffffffffffffffff1681526020019081526020015f205f0160056101000a81548160ff021916908360ff160217905550505050505050565b600181815481106104c9575f80fd5b905f5260205f20015f915054906101000a900473ffffffffffffffffffffffffffffffffffffffff1681565b5f805f9054906101000a900473ffffffffffffffffffffffffffffffffffffffff16905090565b6002602052805f5260405f205f91509050805f015f9054906101000a90045f0b90805f0160019054906101000a90045f0b90805f0160029054906101000a90045f0b90805f0160039054906101000a900460ff1690805f0160049054906101000a900460ff1690805f0160059054906101000a900460ff16905086565b5f6105a48383610993565b905060025f3373ffffffffffffffffffffffffffffffffffffffff1673ffffffffffffffffffffffffffffffffffffffff1681526020019081526020015f205f0160029054906101000a90045f0b5f0b8112156106ac57600160025f3373ffffffffffffffffffffffffffffffffffffffff1673ffffffffffffffffffffffffffffffffffffffff1681526020019081526020015f205f0160049054906101000a900460ff166106549190610ecc565b60025f3373ffffffffffffffffffffffffffffffffffffffff1673ffffffffffffffffffffffffffffffffffffffff1681526020019081526020015f205f0160046101000a81548160ff021916908360ff1602179055505b505050565b808073ffffffffffffffffffffffffffffffffffffffff163373ffffffffffffffffffffffffffffffffffffffff1614610720576040517f08c379a000000000000000000000000000000000000000000000000000000000815260040161071790610f70565b60405180910390fd5b5f805b6001805490508110156107ba578273ffffffffffffffffffffffffffffffffffffffff166001828154811061075b5761075a610f8e565b5b905f5260205f20015f9054906101000a900473ffffffffffffffffffffffffffffffffffffffff1673ffffffffffffffffffffffffffffffffffffffff16036107a757600191506107ba565b80806107b290610fbb565b915050610723565b50806107fb576040517f08c379a00000000000000000000000000000000000000000000000000000000081526004016107f290611072565b60405180910390fd5b60025f8473ffffffffffffffffffffffffffffffffffffffff1673ffffffffffffffffffffffffffffffffffffffff1681526020019081526020015f205f0160059054906101000a900460ff1660ff1660025f8573ffffffffffffffffffffffffffffffffffffffff1673ffffffffffffffffffffffffffffffffffffffff1681526020019081526020015f205f0160049054906101000a900460ff1660ff16116108a4575f80fd5b5f8373ffffffffffffffffffffffffffffffffffffffff166108fc60025f8773ffffffffffffffffffffffffffffffffffffffff1673ffffffffffffffffffffffffffffffffffffffff1681526020019081526020015f205f0160039054906101000a900460ff1660ff1690811502906040515f60405180830381858888f1935050505090508061096a576040517f08c379a0000000000000000000000000000000000000000000000000000000008152600401610961906110da565b60405180910390fd5b50505050565b5f8054906101000a900473ffffffffffffffffffffffffffffffffffffffff1681565b5f8060025f3373ffffffffffffffffffffffffffffffffffffffff1673ffffffffffffffffffffffffffffffffffffffff1681526020019081526020015f205f015f9054906101000a90045f0b846109eb91906110f8565b5f0b90505f60025f3373ffffffffffffffffffffffffffffffffffffffff1673ffffffffffffffffffffffffffffffffffffffff1681526020019081526020015f205f0160019054906101000a90045f0b84610a4791906110f8565b5f0b9050610a77600282610a5b919061129f565b600284610a68919061129f565b610a72919061130a565b610a81565b9250505092915050565b5f806002600184610a92919061130a565b610a9c9190611378565b90508291505b81811215610ad7578091506002808385610abc9190611378565b610ac691906113e0565b610ad09190611378565b9050610aa2565b50919050565b5f80fd5b5f73ffffffffffffffffffffffffffffffffffffffff82169050919050565b5f610b0a82610ae1565b9050919050565b610b1a81610b00565b8114610b24575f80fd5b50565b5f81359050610b3581610b11565b92915050565b5f815f0b9050919050565b610b4f81610b3b565b8114610b59575f80fd5b50565b5f81359050610b6a81610b46565b92915050565b5f60ff82169050919050565b610b8581610b70565b8114610b8f575f80fd5b50565b5f81359050610ba081610b7c565b92915050565b5f805f805f8060c08789031215610bc057610bbf610add565b5b5f610bcd89828a01610b27565b9650506020610bde89828a01610b5c565b9550506040610bef89828a01610b5c565b9450506060610c0089828a01610b5c565b9350506080610c1189828a01610b92565b92505060a0610c2289828a01610b92565b9150509295509295509295565b5f819050919050565b610c4181610c2f565b8114610c4b575f80fd5b50565b5f81359050610c5c81610c38565b92915050565b5f60208284031215610c7757610c76610add565b5b5f610c8484828501610c4e565b91505092915050565b610c9681610b00565b82525050565b5f602082019050610caf5f830184610c8d565b92915050565b5f60208284031215610cca57610cc9610add565b5b5f610cd784828501610b27565b91505092915050565b610ce981610b3b565b82525050565b610cf881610b70565b82525050565b5f60c082019050610d115f830189610ce0565b610d1e6020830188610ce0565b610d2b6040830187610ce0565b610d386060830186610cef565b610d456080830185610cef565b610d5260a0830184610cef565b979650505050505050565b5f8060408385031215610d7357610d72610add565b5b5f610d8085828601610b5c565b9250506020610d9185828601610b5c565b9150509250929050565b5f610da582610ae1565b9050919050565b610db581610d9b565b8114610dbf575f80fd5b50565b5f81359050610dd081610dac565b92915050565b5f60208284031215610deb57610dea610add565b5b5f610df884828501610dc2565b91505092915050565b5f82825260208201905092915050565b7f4f6e6c7920656d706c6f79656572206861732061636365737320746f207468695f8201527f732066756e6374696f6e00000000000000000000000000000000000000000000602082015250565b5f610e6b602a83610e01565b9150610e7682610e11565b604082019050919050565b5f6020820190508181035f830152610e9881610e5f565b9050919050565b7f4e487b71000000000000000000000000000000000000000000000000000000005f52601160045260245ffd5b5f610ed682610b70565b9150610ee183610b70565b9250828201905060ff811115610efa57610ef9610e9f565b5b92915050565b7f4f6e6c7920616e20656d706c6f796565206861732061636365737320746f20745f8201527f6869732066756e6374696f6e0000000000000000000000000000000000000000602082015250565b5f610f5a602c83610e01565b9150610f6582610f00565b604082019050919050565b5f6020820190508181035f830152610f8781610f4e565b9050919050565b7f4e487b71000000000000000000000000000000000000000000000000000000005f52603260045260245ffd5b5f610fc582610c2f565b91507fffffffffffffffffffffffffffffffffffffffffffffffffffffffffffffffff8203610ff757610ff6610e9f565b5b600182019050919050565b7f4f6e6c7920616e2020656d706c6f796565206861732061636365737320746f205f8201527f746869732066756e6374696f6e00000000000000000000000000000000000000602082015250565b5f61105c602d83610e01565b915061106782611002565b604082019050919050565b5f6020820190508181035f83015261108981611050565b9050919050565b7f4661696c656420746f2073656e642045746865720000000000000000000000005f82015250565b5f6110c4601483610e01565b91506110cf82611090565b602082019050919050565b5f6020820190508181035f8301526110f1816110b8565b9050919050565b5f61110282610b3b565b915061110d83610b3b565b92508282039050607f81137fffffffffffffffffffffffffffffffffffffffffffffffffffffffffffffff808212171561114a57611149610e9f565b5b92915050565b5f8160011c9050919050565b5f808291508390505b60018511156111a55780860481111561118157611180610e9f565b5b60018516156111905780820291505b808102905061119e85611150565b9450611165565b94509492505050565b5f825f81146111c457600181146111ce576111d7565b600191505061128e565b8291505061128e565b50816111e5575f905061128e565b600190505f821360018114611200575f81146112185761122c565b82860483111561121357611212610e9f565b5b61122c565b82860583121561122b5761122a610e9f565b5b5b50600183161561123a578190505b818202915061124883611150565b92506112568584848461115c565b9250905081850481115f8213161561127157611270610e9f565b5b81840581125f8212161561128857611287610e9f565b5b81810290505b949350505050565b5f819050919050565b5f6112a982611296565b91506112b483610b70565b92506113027f7fffffffffffffffffffffffffffffffffffffffffffffffffffffffffffffff7f800000000000000000000000000000000000000000000000000000000000000085856111ae565b905092915050565b5f61131482611296565b915061131f83611296565b92508282019050828112155f8312168382125f84121516171561134557611344610e9f565b5b92915050565b7f4e487b71000000000000000000000000000000000000000000000000000000005f52601260045260245ffd5b5f61138282611296565b915061138d83611296565b92508261139d5761139c61134b565b5b60015f0383147f8000000000000000000000000000000000000000000000000000000000000000831416156113d5576113d4610e9f565b5b828205905092915050565b5f6113ea82611296565b91506113f583611296565b925082820261140381611296565b91507f800000000000000000000000000000000000000000000000000000000000000084145f8412161561143a57611439610e9f565b5b828205841483151761144f5761144e610e9f565b5b509291505056fea26469706673582212200e619c6a09b0d43e9f82137071566a1c140cbc03481b50895bdc5a20094b90e264736f6c63430008150033",
  "immutableReferences": {},
  "source": "// SPDX-License-Identifier: MIT\r\npragma solidity ^0.8.9;\r\n\r\ncontract LBRC {\r\n\r\n    address public employer;\r\n    address[] public employees;\r\n\r\n    struct ContractStatus {\r\n        int8 cenLat;\r\n        int8 cenLon;\r\n        int8 radius;\r\n        uint8 payAmount;\r\n        uint8 compCount;\r\n        uint8 reqAmount;\r\n    }\r\n\r\n    mapping(address => ContractStatus) public empContractStatus;\r\n    //////////////////////////////////////////////////////////////////////\r\n    // helper functions\r\n    constructor () {\r\n        employer = msg.sender;\r\n    }\r\n    \r\n    // Define a re-usable access modifier\r\n    // To be used when the contract updating and emplyee\r\n    // data submission functions are called\r\n    modifier onlyEmployer() {\r\n        require(msg.sender == employer, \"Only employeer has access to this function\");\r\n        _;\r\n    }\r\n    modifier onlyEmployee(address _addr) {\r\n        require(msg.sender == _addr, \"Only an employee has access to this function\");\r\n        bool exists = false;\r\n\r\n        for (uint256 i = 0; i < employees.length; i++) {\r\n            if (employees[i] == _addr) {\r\n                exists = true;\r\n                break;\r\n            }\r\n        }\r\n\r\n        require(exists, \"Only an  employee has access to this function\");\r\n        _;\r\n    }\r\n\r\n    function sqrt(int256 input) private pure returns (int256 output) {\r\n        int256 temp = (input + 1) / 2;\r\n        output = input;\r\n        while (temp < output) {\r\n            output = temp;\r\n            temp = ((input / output) * 2) / 2;\r\n        }\r\n    }\r\n\r\n    function getDistance(\r\n        int8 _lat,\r\n        int8 _lon\r\n    ) private view returns (int256 dist) {\r\n        int256 x = _lat - empContractStatus[msg.sender].cenLat;\r\n        int256 y = _lon - empContractStatus[msg.sender].cenLon;\r\n        dist = sqrt(x**2 + y**2);\r\n        return dist;\r\n    }\r\n\r\n    ///////////////////////////////////////////////////////////////\r\n    // only employer has access\r\n    function setAccount(\r\n        address _empAddr,\r\n        int8 _cenLat,\r\n        int8 _cenLon,\r\n        int8 _radius,\r\n        uint8 _payAmount,\r\n        uint8 _reqAmount\r\n        // Should also set the duration the contract will be checking for\r\n        ) public onlyEmployer() {\r\n            employees.push(_empAddr); // should delete if it is already in the list\r\n            empContractStatus[_empAddr].cenLat = _cenLat;\r\n            empContractStatus[_empAddr].cenLon = _cenLon;\r\n            empContractStatus[_empAddr].radius = _radius;\r\n            empContractStatus[_empAddr].payAmount = _payAmount;\r\n            empContractStatus[_empAddr].compCount = 0;\r\n            empContractStatus[_empAddr].reqAmount = _reqAmount;\r\n    }\r\n\r\n    function updateStatus(\r\n        int8 _lat, \r\n        int8 _lon\r\n        ) public {\r\n            int256 dist = getDistance(_lat, _lon);\r\n            if (dist < empContractStatus[msg.sender].radius) {\r\n                empContractStatus[msg.sender].compCount = empContractStatus[msg.sender].compCount + 1;\r\n            }\r\n    }\r\n\r\n    function payMe(address payable _to) public payable onlyEmployee(_to) {\r\n        require(empContractStatus[_to].compCount > empContractStatus[_to].reqAmount);\r\n        bool sent = _to.send(empContractStatus[_to].payAmount);\r\n        require(sent, \"Failed to send Ether\");\r\n    }\r\n    \r\n    // function getEmpStatus(address _empAdd) public view returns (bool) {\r\n    //     // For now it returns true if the update was successfull atlest once.\r\n    //     if (empContractStatus[_empAdd].compCount > 3) return true;\r\n    //     else return false;\r\n    // }\r\n\r\n    function getAdmin() public view returns(address) {\r\n        return employer;\r\n    }\r\n\r\n    \r\n}",
  "sourcePath": "/mnt/c/users/user/Desktop/10 acc/Week 9/Refund-by-Location-Smart-Contract/smart-contract/contracts/Location.sol",
  "compiler": {
    "name": "solc",
    "version": "0.8.21+commit.d9974bed.Emscripten.clang"
  },
  "schemaVersion": "3.4.16",
  "updatedAt": "2024-02-10T06:45:55.786Z",
  "devdoc": {
    "kind": "dev",
    "methods": {},
    "version": 1
  },
  "userdoc": {
    "kind": "user",
    "methods": {},
    "version": 1
  }
}